:1000000014C01BC01AC019C018C017C016C015C034
:1000100014C013C012C011C010C00FC00EC00DC05C
:100020000CC00BC00AC009C008C011241FBECFE518
:10003000D1E0DEBFCDBF1ED025C0E2CFCF93DF938E
:1000400000D0CDB7DEB7882381F01A8219822981CA
:100050003A81293C314039F029813A812F5F3F4F65
:100060003A832983F4CF8150EECF0F900F90DF9128
:10007000CF910895889A909A88ECE0DF909888EC68
:08008000DDDFF9CFF894FFCF9A
:00000001FF
