:1000000014C01BC01AC019C018C017C016C015C034
:1000100014C013C012C011C010C00FC00EC00DC05C
:100020000CC00BC00AC009C008C011241FBECFE518
:10003000D1E0DEBFCDBF12D041C0E2CF6AE070E0B8
:1000400029D06115710549F08FE19EE40197F1F720
:1000500000C0000061507109F4CF089581B383603E
:1000600081BB90989198C0E0D1E082B3C11102C0E9
:100070009EEF01C09DEF892382BB82B3CC2311F098
:1000800091E001C092E0892B82BBCD2788EC90E003
:10009000D5DFEBCFAA1BBB1B51E107C0AA1FBB1FBB
:1000A000A617B70710F0A61BB70B881F991F5A9504
:1000B000A9F780959095BC01CD010895F894FFCFE4
:00000001FF
